:020000040000FA
:100000000C9464010C9495010C9495010C94950149
:100010000C9495010C9495010C9495010C94950108
:100020000C9495010C946D0F0C946D0F0C946D0F46
:100030000C9495010C94870C0C9495010C949501EB
:100040000C9495010C943F0F0C9495010C94950120
:100050000C9495010C9495010C9495010C94470D0A
:100060000C9495010C94110D0C94E70C0C949501D3
:100070000C9495010C9495010C9495010C949501A8
:100080000C94110F0C9495010C9495010C9495010E
:100090000C9495010C9495010C9495010C94910D80
:1000A0000C9495010C9495010C94E30E0C9495011D
:1000B0000C9495010C9495010C9495010C94B50E3B
:1000C0000C9495010C9495010C9495010C94950158
:1000D0000C9495010C9495010C9495010C94950148
:1000E0000C9495010C941C030C9497010C94A6019C
:1000F0000C9453030C9402030C94C8010C949F02BB
:100100000C9443020C94FD020C9423030C943703CB
:100110000C9439080C949E020C94FD0A0C943B0339
:100120000C9462080C9413140C94AF150C944808AA
:100130000C9420030C949A150C94640A0C94A91541
:100140000C948F080C949D150C9449030C94B515D0
:100150000C9414030C94A6150C94AC150C94BA01D1
:100160000C9418030C94A3150C945B080C94B21512
:100170000C9438080C942D030C94A0020C944F039B
:100180000C9433030C9445030C9441030C94F60136
:100190000C94A0150C94B8150C9429030C94630AC4
:1001A0000C94BC0F00002100240027002A002D0021
:1001B0003000330001010000040107010A010000C2
:1001C0000A0B02090C0D0E080703040100000000D1
:1001D000000000000000000000000000000000001F
:1001E00000000000000000000000121110000000DC
:1001F00000000000000000000000000000000000FF
:1002000000000000000020002300260029002C0030
:100210002F00320000010000030106010901010264
:100220001020200808102040102040800201020108
:1002300008040201010204081020408080402010C0
:100240000804020180040201804020100804020119
:100250000804020101020408102040800102040881
:100260001020408000002200250028002B002E00D6
:100270003100340002010000050108010B010505F1
:100280000505070508080808020202020A0A08080C
:10029000040404040101010101010101030303033A
:1002A00003030303040707070C0C0C0C0C0C0C0CC9
:1002B0000202020206060606060606060B0B0B0BDA
:1002C0000B0B0B0B0200BC0F11241FBECFEFD1E2B2
:1002D000DEBFCDBF00E00CBF13E0A0E0B2E0EAE774
:1002E000F3E300E00BBF02C007900D92AE31B107FF
:1002F000D9F725E0AEE1B3E001C01D92A539B20700
:10030000E1F711E0C4E6D1E000E006C02197010961
:10031000802FFE010E94AC19C336D10780E0080788
:10032000A9F70E94D3100C94BB190C940000FC0197
:10033000538D448D252F30E0842F90E0821B930B4A
:10034000541710F0CF96089501970895FC01918DF0
:10035000828D981761F0A28DAE0FBF2FB11D5D96F3
:100360008C91928D9F5F9F73928F90E008958FEF95
:100370009FEF0895FC01918D828D981731F0828D49
:10038000E80FF11D858D90E008958FEF9FEF0895A0
:10039000FC01918D228D892F90E0805C9F4F821B04
:1003A00091098F7399270895FC01A48DA80FB92F87
:1003B000B11DA35ABF4F2C91848D90E001968F738D
:1003C0009927848FA689B7892C93A089B1898C91AC
:1003D000837080648C93938D848D981306C00288FB
:1003E000F389E02D80818F7D80830895EF92FF92C5
:1003F0000F931F93CF93DF93EC0181E0888F9B8D48
:100400008C8D98131AC0E889F989808185FF15C001
:100410009FB7F894EE89FF896083E889F989808124
:100420008370806480839FBF81E090E0DF91CF91F3
:100430001F910F91FF90EF900895F62E0B8D10E015
:100440000F5F1F4F0F731127E02E8C8D8E110CC084
:100450000FB607FCFACFE889F989808185FFF5CFCF
:10046000CE010E94D401F1CFEB8DEC0FFD2FF11DD9
:10047000E35AFF4FF0829FB7F8940B8FEA89FB890C
:1004800080818062CFCFCF93DF93EC01888D88236A
:10049000B9F0AA89BB89E889F9898C9185FD03C0E7
:1004A000808186FD0DC00FB607FCF7CF8C9185FFCC
:1004B000F2CF808185FFEDCFCE010E94D401E9CF3C
:1004C000DF91CF9108958DE094E00E94C80121E072
:1004D000892B09F420E0822F089580E090E0892B99
:1004E00029F00E94630281110E94000080E090E0E8
:1004F000892B49F080E090E0892B29F00E940000D0
:1005000081110E94000080E090E0892B49F080E09A
:1005100090E0892B29F00E94000081110E940000C8
:1005200080E090E0892B49F080E090E0892B29F071
:100530000E94000081110C94000008950895089510
:10054000AF92BF92CF92DF92EF92FF920F931F93E1
:10055000CF93DF936C017B018B01040F151FEB011F
:100560005E01AE18BF08C017D10759F06991D601D6
:10057000ED91FC910190F081E02DC6011995892B38
:1005800079F7C501DF91CF911F910F91FF90EF9007
:10059000DF90CF90BF90AF900895282F30E0F90101
:1005A000E254FE4F9491F901E25EFD4F44912258CE
:1005B0003D4FF9012491222309F435C0992311F10B
:1005C00091509231F8F4E92FF0E08827E551FD4F82
:1005D0008F4F0C94AC191C032003FD021403180365
:1005E0000203230329032D03330337033B03410392
:1005F0004503020349034F035303809180008F7723
:1006000080938000E22FF0E0EE0FFF1FEC59FD4FCA
:10061000A591B4918FB7F894EC91611148C04095C1
:100620004E234C938FBF0895809180008F7DE8CF3B
:1006300080918000877FE4CF84B58F7784BDE2CF3F
:1006400084B58F7DFBCF8091B0008F778093B00011
:10065000D9CF8091B0008F7DF9CF809190008F77B6
:1006600080939000CFCF809190008F7DF9CF8091C3
:100670009000877FF5CF8091A0008F778093A000B6
:10068000C1CF8091A0008F7DF9CF8091A000877F9E
:10069000F5CF809120018F7780932001B3CF809197
:1006A00020018F7DF9CF80912001877FF5CF4E2BE0
:1006B000B8CF9091000289130DC0E4ECF2E0E49110
:1006C0009FEF90930002E230E1F038F4EE2381F0E6
:1006D000E13089F060E00C94CD02E43049F110F192
:1006E000E530C1F7909173009D7F90937300F2CF36
:1006F00010926E00EFCF90916F009D7F90936F00EE
:10070000E9CF909170009D7F9093700091E090935D
:10071000B0009091B100987F94609093B1001092D6
:10072000B300D8CF909171009D7F90937100D2CF8C
:10073000909172009D7F90937200CCCFCF93DF9306
:1007400090E0FC01E25EFD4F249182589D4FFC0138
:1007500084918823D1F090E0880F991FFC01EC551B
:10076000FE4FA591B491FC01EC59FD4FC591D49178
:1007700061110EC09FB7F8948C91E22FE0958E2303
:100780008C932881E223E8839FBFDF91CF91089566
:100790008FB7F894EC91E22BEC938FBFF6CFCF9309
:1007A00090910002891721F09F3F51F1CF91089558
:1007B000E4ECF2E0C491C7FDF9CF61E00E949E0332
:1007C000CC2309F406C1C23009F01AC18091B100EE
:1007D000887F83608093B10089EF8093B3008FEFAF
:1007E0009FEFDC018093010490930204A093030423
:1007F000B093040480917000826080937000D6CF23
:1008000080930002E4ECF2E0C4919C2FCF3F71F2A0
:10081000C23009F473C058F4CC2391F1C13009F40B
:100820004BC097FDC3CF61E00E949E03CCCFC43084
:1008300009F4ADC008F488C0C53099F710922001C2
:100840001092210190912101986090932101909143
:100850002101916090932101282F30E0F901E258A5
:10086000FD4FE491F0E0EE0FFF1FEC59FD4F459175
:100870005491F901E25EFD4FE491E093ED039DCFC9
:1008800014BC15BC94B5926094BD95B5916095BDAE
:10089000282F30E0F901E258FD4FE491F0E0EE0F2F
:1008A000FF1FEC59FD4F45915491F901E25EFD4F58
:1008B000E491E093F40381CF1092800010928100C4
:1008C0009091810098609093810090918100916057
:1008D00090938100282F30E0F901E258FD4FE49118
:1008E000F0E0EE0FFF1FEC59FD4F45915491F901D7
:1008F000E25EFD4FE491E093F3035FCF1092B0000E
:100900001092B1009091B00092609093B0009091DD
:10091000B10091609093B100282F30E0F901E258C6
:10092000FD4FE491F0E0EE0FFF1FEC59FD4F4591B4
:1009300054915093F2034093F103F901E25EFD4FAD
:10094000E491E093F00339CF10929000109291005F
:100950009091910098609093910090919100916096
:1009600090939100282F30E0F901E258FD4FE49177
:10097000F0E0EE0FFF1FEC59FD4F45915491F90146
:10098000E25EFD4FE491E093EF03C3E016CF1092D7
:10099000A0001092A1009091A10098609093A100F6
:1009A0009091A10091609093A100282F30E0F9016F
:1009B000E258FD4FE491F0E0EE0FFF1FEC59FD4FC0
:1009C00045915491F901E25EFD4FE491E093EE030D
:1009D000F4CE85B5887F836085BD8CE787BD8FEFBA
:1009E0009FEFDC018093090490930A04A0930B0409
:1009F000B0930C0480916E00826080936E00D6CE1E
:100A0000C130E9F480918100887F8160809381000A
:100A10008FE39FE190938900809388008FEF9FEF91
:100A2000DC018093050490930604A0930704B0931F
:100A3000080480916F00826080936F00B7CEC3304E
:100A4000E9F480919100887F8160809391008FE329
:100A50009FE190939900809398008FEF9FEFDC01C6
:100A60008093FD039093FE03A093FF03B0930004D3
:100A70008091710082608093710098CEC430E9F457
:100A80008091A100887F81608093A1008FE39FE126
:100A90009093A9008093A8008FEF9FEFDC018093D3
:100AA000F9039093FA03A093FB03B093FC038091A6
:100AB000720082608093720079CEC530E9F4809133
:100AC0002101887F8160809321018FE39FE19093D2
:100AD0002901809328018FEF9FEFDC018093F503BC
:100AE0009093F603A093F703B093F80380917300FB
:100AF0008260809373005ACEC23091F034F4CC23DC
:100B000069F0C13009F052CE83CFC43009F4BECFB2
:100B10000CF49DCFC53009F049CED7CF8FE35ECF1F
:100B20008FE35BCE863308F0865320917B00982FAD
:100B30009870277F922B90937B00877080648093BE
:100B40007C0080917A00806480937A0080917A00A2
:100B500086FDFCCF809178009091790008953FB791
:100B6000F89480916D0390916E03A0916F03B09102
:100B7000700326B5A89B05C02F3F19F00196A11D53
:100B8000B11D3FBFBA2FA92F982F8827BC01CD01D7
:100B9000620F711D811D911D42E0660F771F881F36
:100BA000991F4A95D1F708958F929F92AF92BF9265
:100BB000CF92DF92EF92FF924B015C010E94AF0552
:100BC0006B017C010E94AF056C197D098E099F099C
:100BD000683E734081059105A8F321E0821A9108CF
:100BE000A108B10888EEC80E83E0D81EE11CF11CF4
:100BF00081149104A104B10429F7FF90EF90DF90D4
:100C0000CF90BF90AF909F908F900895FC019081FE
:100C100090539A3008F090E0818180532AE0929FAF
:100C2000800D1124089520914503260F3327331F8B
:100C300021323105ECF42091C303FC0190E080E007
:100C4000243069F082E00895A09145032191AC0120
:100C50004B5D5C4FA40FB52FB11D2C9301968617E9
:100C600098F380914503680F6093450380E00895F1
:100C700081E008951092C30381E08093C203109233
:100C80009D0361E084E10E94CD0261E085E10E9464
:100C9000CD02E9EBF0E080818E7F808380818D7FC3
:100CA000808388E48093B80085E48093BC00089535
:100CB000CF93DF9391E0909324038823B9F0C09100
:100CC000B800D091BA008091BC008A7B8093BC00B0
:100CD00060E084E10E94CD0260E085E10E94CD02E7
:100CE0000E943A06D093BA00C093B800DF91CF912A
:100CF00008958F929F92AF92BF92CF92DF92EF9220
:100D0000FF920F931F93CF93DF93D091EC03D132D7
:100D100008F0D7C0182FC091EB030E94AF056B01FC
:100D20007C018091C30381116BC082E08093C30377
:100D30001093C2038FEF8093C1031092C003D0932E
:100D4000BF03ABECB3E0EFE9F3E080E0D81391C070
:100D500010929E0380919E03CC0FC82BC0939E03DC
:100D600080919D03813009F088C010929D030E94FC
:100D7000AF056B017C0180919E038093BB00809145
:100D8000C5039091C603A091C703B091C803892BF6
:100D90008A2B8B2BA1F00E94AF050091C503109107
:100DA000C6032091C7033091C8036C197D098E09D1
:100DB0009F09061717072807390708F442C08091D2
:100DC000BC0083FDD8CF85EC8093BC000E94AF05AA
:100DD0006B017C018091C303823009F450C0809183
:100DE000C1038F3F09F46FC08091C103803209F4C1
:100DF0006CC08091C103803309F469C084E026C0CF
:100E00008091C5039091C603A091C703B091C80318
:100E1000892B8A2B8B2B09F484CF0E94AF058090FD
:100E2000C5039090C603A090C703B090C8036C1987
:100E30007D098E099F0986169706A806B90608F04F
:100E400070CF8091C4030E94580685E01092CA03B7
:100E50001092EC031092C903DF91CF911F910F9173
:100E6000FF90EF90DF90CF90BF90AF909F908F90CA
:100E700008959D9191938F5F69CF85EEA5CF809165
:100E8000C5039091C603A091C703B091C803892BF5
:100E90008A2B8B2B09F49ECF0E94AF050091C503CE
:100EA0001091C6032091C7033091C8036C197D09C6
:100EB0008E099F09061717072807390708F08ACFF8
:100EC000C0CF81E0C3CF80E0C1CF82E0BFCF83E05D
:100ED000BDCFCF92DF92EF92FF920F931F93CF93EC
:100EE000DF93D82FC62F613208F098C00E94AF055B
:100EF0006B017C018091C30381116BC081E0809301
:100F0000C3038093C2039FEF9093C1031092C00369
:100F10009C0F9093BF0380939E0380919E03DD0FEF
:100F2000D82BD0939E0380919D03813009F078C027
:100F300010929D030E94AF056B017C0180919E037E
:100F40008093BB008091C5039091C603A091C70315
:100F5000B091C803892B8A2B8B2BA1F00E94AF057F
:100F60000091C5031091C6032091C7033091C803B7
:100F70006C197D098E099F0906171707280739077D
:100F800008F448C08091BC0083FDD8CF85EC8093E5
:100F9000BC000E94AF056B017C018091C3038130CE
:100FA00009F440C08091C0038C1710F4C091C003B5
:100FB000EFE9F3E0ADE7B3E080E08C1355C08C2F90
:100FC000DF91CF911F910F91FF90EF90DF90CF9025
:100FD00008958091C5039091C603A091C703B09175
:100FE000C803892B8A2B8B2B09F484CF0E94AF0571
:100FF0000091C5031091C6032091C7033091C80327
:101000006C197D098E099F090617170728073907EC
:1010100008F070CF8091C4030E945806C0E0CFCF83
:1010200085EEB5CF8091C5039091C603A091C7030B
:10103000B091C803892B8A2B8B2B09F4AECF0E9469
:10104000AF050091C5031091C6032091C7033091ED
:10105000C8036C197D098E099F0906171707280711
:10106000390708F09ACFD6CF91919D938F5FA5CF86
:101070000895E091760380917503E81730F4F0E06D
:10108000E358FC4F808190E008958FEF9FEF089523
:1010900090917603809175032FEF3FEF981748F4F6
:1010A000E92FF0E0E358FC4F208130E09F5F909300
:1010B0007603C90108958091750390917603891B89
:1010C000990B0895CF92DF92EF92FF920F931F93A7
:1010D000CF93DF937C01CB018A012091C9032223A6
:1010E00089F0EB016B01C40ED51ECC15DD0569F04E
:1010F0006991D701ED91FC910190F081E02DC7013C
:101100001995F3CF642F0E941306C801DF91CF9188
:101110001F910F91FF90EF90DF90CF900895CF93A4
:10112000DF931F92CDB7DEB769832091C9032223D5
:10113000F9F02091EC03203258F021E030E0FC017E
:101140003383228390E080E00F90DF91CF91089568
:101150008091CA03E82FF0E0E553FC4F998190831A
:101160008F5F8093CA038093EC0381E090E0ECCF23
:1011700061E0CE0101960E941306F7CF8F929F92F5
:10118000AF92BF92FF920F931F93CF93DF93FC0117
:10119000F0808FE28F1508F44AC0828108E512E0E2
:1011A000081B110987FD1395000F111F000F111F58
:1011B0008181C8E8D0E0C81BD10987FDD395CC0F49
:1011C000DD1FCC0FDD1F4E010D2E000CAA08BB0841
:1011D0009801012E000C440B550B281939094A09B6
:1011E0005B09DB010E94481824EB30E040E050E04E
:1011F0000E941E18820E931EA41EB51E8C169D06FC
:101200002CF0E801801691060CF4E4012297CC0F33
:10121000DD1F2FB7F8948F2D90E0FC01EE0FFF1F1C
:10122000E80FF91FEA54FB4FD283C1832FBFDF9130
:10123000CF911F910F91FF90BF90AF909F908F9093
:1012400008951F93CF93DF93EC01162F888180338D
:1012500008F04EC061E0812F0E949E038881282FF4
:1012600030E0F901EE0FFF1FE20FF31FEA54FB4FCE
:101270001F736081607C612B608319821A822CE06D
:10128000622F0E94A019829FB001112430E020E05B
:10129000AB01420F531FFA01EE0FFF1FE40FF51FC2
:1012A000EA54FB4F908196FD16C02F5F3F4F2C30C4
:1012B000310571F7813009F51092800082E080934A
:1012C00081001092850010928400B19A80916F0085
:1012D000826080936F00E8818E2F90E0FC01EE0F1A
:1012E000FF1FE80FF91FEA54FB4F80818064808361
:1012F0008881DF91CF911F910895823061F410921F
:10130000900080939100109295001092940088BBF9
:1013100080937100E0CF833069F41092A00082E0E6
:101320008093A1001092A5001092A40089BB809325
:101330007200D1CF8111CFCF1092200182E0809333
:10134000210110922501109224018ABB8093730021
:10135000C2CFAF92BF92CF92DF92EF92FF920F93E4
:101360001F93CF93DF936B017A01EC01C05EDC4FDA
:1013700028813CE0389F8001399F100D1124A090F6
:101380004605B12C27FF1FC0FB0111821082888106
:101390008F5F888388819801280F311D87FD3A95DA
:1013A000F6012A153B051CF488818C30C4F180813C
:1013B0009181049680349C4908F473C0F6018081C1
:1013C0009181049670C088819801280F311D87FD96
:1013D0003A952A153B05DCF68881A801480F511D76
:1013E00087FD5A95FA01EE0FFF1FE40FF51FEA542F
:1013F000FB4F808186FFCBCF8881F801E80FF11D7C
:1014000087FDFA95CF01EE0FFF1FE80FF91FEA5491
:10141000FB4F808160E08F730E94CD02B8CF808146
:1014200091812881A801420F511D27FD5A959A01EB
:10143000FA01EE0FFF1FE20FF31FEA54FB4F218169
:101440003281820F931FF7019183808388819801F5
:10145000280F311D87FD3A95F901EE0FFF1FE20FAE
:10146000F31FEA54FB4F808186FF22C08881080F5A
:10147000111D87FD1A95F801EE0FFF1FE00FF11FF8
:10148000EA54FB4F808161E08F73DF91CF911F9110
:101490000F91FF90EF90DF90CF90BF90AF900C94A2
:1014A000CD0280E49CE9F701918380838FEF8883EC
:1014B000DF91CF911F910F91FF90EF90DF90CF9030
:1014C000BF90AF900895089590E080E00895CF9385
:1014D000DF93EC0160E08E810E94CD0261E08E819D
:1014E0000E94CD0260E08E810E94CD028BE891E0E7
:1014F0000197F1F7DF91CF910895CF92DF92EF92AC
:10150000FF920F931F93CF93DF936C017C0187E0D1
:10151000E80EF11CD0E0C0E0062F10E0B8010C2E60
:1015200002C0759567950A94E2F76170F7018191A1
:101530007F010E94CD022196C430D10579F7C60102
:10154000DF91CF911F910F91FF90EF90DF90CF909F
:101550000C94670ACF92DF92EF92FF920F931F9342
:10156000CF93DF93EC01F62E642F8C810E94CD0285
:101570008D818F3F19F060E00E94CD020F2D10E0A9
:101580008F8584FF25C06E0187E0C80ED11CF12C29
:10159000E12CB8010E2C02C0759567950A94E2F70C
:1015A0006170F60181916F010E94CD02FFEFEF1A89
:1015B000FF0A88E0E816F10461F7CE01DF91CF91D0
:1015C0001F910F91FF90EF90DF90CF900C94670ADE
:1015D000B80184E0759567958A95E1F7CE010E9480
:1015E0007D0A6F2DCE01DF91CF911F910F91FF905A
:1015F000EF90DF90CF900C947D0A41E00E94AA0A00
:1016000081E090E0089541E00E94AA0A81E090E024
:10161000089540E00C94AA0AFC012389621710F097
:101620006FEF620FFC01E60FF11D648960680C9496
:10163000090B61E00E94090B8BE39FE10197F1F731
:1016400008950F931F93CF93DF93EC01413019F06E
:101650008F8588608F874B8B1C8A80E48D8B6E8B87
:10166000605C6F8B61E08C810E949E038D818F3F57
:1016700019F061E00E949E0361E08E810E949E034A
:101680008E0198012C1B3D0B8F8584FD0DC084E0DD
:1016900090E00F5F1F4F281739074CF461E0F80105
:1016A00086810E949E03EDCF88E090E0F2CF8BE32D
:1016B0009DE00197F1F760E08C810E94CD0260E02F
:1016C0008E810E94CD028D818F3F19F060E00E94D3
:1016D000CD026F8564FD34C063E0CE010E947D0AB7
:1016E0000BE416E4C8010197F1F763E0CE010E9414
:1016F0007D0AC8010197F1F763E0CE010E947D0ADF
:1017000083E592E00197F1F762E0CE010E947D0A45
:101710006F856062CE010E94090B84E0888B6CE0CB
:10172000CE010E94090BCE010E94190B82E0898B29
:1017300066E0CE01DF91CF911F910F910C94090BC0
:101740006062CE010E94090B8BE496E40197F1F7E9
:101750006F856062CE010E94090B83E592E00197DC
:10176000F1F76F856062CE010E94090BD1CFFB01BA
:1017700001900020E9F73197AF01461B570BDC01C0
:10178000ED91FC910280F381E02D19948F929F924C
:10179000AF92BF92EF92FF920F931F93CF93DF937D
:1017A000CDB7DEB7A1970FB6F894DEBF0FBECDBFA1
:1017B0007C01FA01CB0119A2223008F42AE08E0143
:1017C0000F5D1F4F822E912CB12CA12CBF01A501C2
:1017D00094010E945018F901CA016A300CF5605D4D
:1017E000D8016E938D01232B242B252B79F790E0C4
:1017F00080E0109721F0BD01C7010E94B70BA196B0
:101800000FB6F894DEBF0FBECDBFDF91CF911F9111
:101810000F91FF90EF90BF90AF909F908F900895A1
:10182000695CDECF0C94B70BCF92DF92EF92FF9200
:101830008FE595E00E94190B60E08FE595E00E942E
:101840000C0B61E372E08FE595E00E94120CC090F2
:101850007903D0907A030D2C000CEE08FF082AE0E3
:10186000B701A601F7FE0DC06DE28FE595E00E947D
:10187000030B44275527BA014C195D096E097F09EE
:101880002AE08FE595E00E94C60B6FE372E08FE5DA
:1018900095E0FF90EF90DF90CF900C94120C85EDC7
:1018A0008093BC008091C5039091C603A091C703AB
:1018B000B091C8030796A11DB11D23E0B695A79569
:1018C000979587952A95D1F72091BC0024FD03C0F8
:1018D0001092C30308954091C5035091C6036091CF
:1018E000C7037091C803452B462B472B69F300971C
:1018F000A105B10541F025E32A95F1F70000019714
:10190000A109B109E1CF8091C4030C9458061F923C
:101910000F920FB60F9211240BB60F922F933F9395
:101920004F935F936F937F938F939F93AF93BF93E7
:10193000EF93FF938091010490910204A09103041E
:10194000B0910404892B8A2B8B2BE1F19091F00349
:10195000E091F103F091F2038081892780838091E7
:10196000010490910204A0910304B091040418169C
:1019700019061A061B069CF480910104909102043A
:10198000A0910304B09104040197A109B1098093C7
:10199000010490930204A0930304B0930404FF9104
:1019A000EF91BF91AF919F918F917F916F915F91D7
:1019B0004F913F912F910F900BBE0F900FBE0F9044
:1019C0001F901895809100020E945903E8CF1F9242
:1019D0000F920FB60F9211240BB60F922F933F93D5
:1019E0004F935F936F937F938F939F93AF93BF9327
:1019F000EF93FF938DE094E00E94D401FF91EF916B
:101A0000BF91AF919F918F917F916F915F914F9116
:101A10003F912F910F900BBE0F900FBE0F901F9014
:101A200018951F920F920FB60F9211240BB60F92BA
:101A30002F938F939F93EF93FF93E0911D04F09169
:101A40001E048081E0912304F091240482FD1DC0D6
:101A50009081809126048F5F8F73209127048217D5
:101A600041F0E0912604F0E0E35FFB4F958F809317
:101A70002604FF91EF919F918F912F910F900BBEB4
:101A80000F900FBE0F901F9018958081F2CF1F927C
:101A90000F920FB60F9211242F933F938F939F9322
:101AA000AF93BF938091690390916A03A0916B03F8
:101AB000B0916C033091680323E0230F2D3758F564
:101AC0000196A11DB11D2093680380936903909333
:101AD0006A03A0936B03B0936C0380916D039091A4
:101AE0006E03A0916F03B09170030196A11DB11D0B
:101AF00080936D0390936E03A0936F03B093700374
:101B0000BF91AF919F918F913F912F910F900FBEF9
:101B10000F901F90189526E8230F0296A11DB11D66
:101B2000D2CF1F920F920FB60F9211240BB60F92C5
:101B30002F933F934F935F936F937F938F939F93D5
:101B4000AF93BF93EF93FF938091B900887F803666
:101B500009F44DC008F040C0883209F4A9C028F546
:101B6000803109F49DC0C8F4882309F4FBC0883093
:101B700009F496C0FF91EF91BF91AF919F918F9122
:101B80007F916F915F914F913F912F910F900BBE7D
:101B90000F900FBE0F901F901895883109F488C0E0
:101BA000803241F78093C10314C0803409F49DC092
:101BB00040F48033B9F38833E9F68093C10385ECB0
:101BC000B0C0803509F485C0883509F496C08834E2
:101BD00089F60E944F0CCECF883909F48CC038F5B5
:101BE000883729F050F4883611F0803719F683E0F1
:101BF0008093C3031092670357C0883809F47BC0F1
:101C0000803919F0803809F0B5CF809167038032B0
:101C100008F071C0E091670381E08E0F8093670345
:101C20008091BB00F0E0E95BFC4F80833DC0803BCE
:101C300039F0E0F4803A09F479C0883A09F09ACF93
:101C400084E08093C3031092460310924503E09111
:101C50007303F091740319958091450381110FC0AE
:101C600081E0809345031092250309C0803C09F46C
:101C7000A6CF883C09F4A3CF883B09F07BCFE09145
:101C8000460381E08E0F80934603F0E0EB5DFC4F4E
:101C900080818093BB00909146038091450329C0C9
:101CA00080919E038093BB0085EC8093BC0062CF43
:101CB0009091C0038091BF03981758F5E091C0033D
:101CC00081E08E0F8093C003F0E0E156FC4F8081ED
:101CD000E9CFE091C00381E08E0F8093C003809133
:101CE000BB00F0E0E156FC4F80839091C0038091EF
:101CF000BF039817C8F285E8D8CFE091C00381E010
:101D00008E0F8093C0038091BB00F0E0E156FC4F42
:101D100080838091C20381115CCF81E080939D0319
:101D200084EA8093BC001092C30324CF85EC809397
:101D3000BC001092C30380916703803230F4E091BD
:101D40006703F0E0E95BFC4F10826091670370E08D
:101D5000E0917103F091720387E493E0199510927A
:101D6000670308CF1092C10334CF1F920F920FB6B2
:101D70000F9211240BB60F922F933F934F935F93C3
:101D80006F937F938F939F93AF93BF93EF93FF9343
:101D900048E251E064E271E090E080E00E94A9092D
:101DA000FF91EF91BF91AF919F918F917F916F9133
:101DB0005F914F913F912F910F900BBE0F900FBEEF
:101DC0000F901F9018951F920F920FB60F9211242B
:101DD0000BB60F922F933F934F935F936F937F9325
:101DE0008F939F93AF93BF93EF93FF9348EA50E095
:101DF00064EA70E083E090E00E94A909FF91EF910E
:101E0000BF91AF919F918F917F916F915F914F9112
:101E10003F912F910F900BBE0F900FBE0F901F9010
:101E200018951F920F920FB60F9211240BB60F92B6
:101E30002F933F934F935F936F937F938F939F93D2
:101E4000AF93BF93EF93FF9348E950E064E970E0EC
:101E500082E090E00E94A909FF91EF91BF91AF91BC
:101E60009F918F917F916F915F914F913F912F91B2
:101E70000F900BBE0F900FBE0F901F9018951F92E2
:101E80000F920FB60F9211240BB60F922F933F9320
:101E90004F935F936F937F938F939F93AF93BF9372
:101EA000EF93FF9348E850E064E870E081E090E051
:101EB0000E94A909FF91EF91BF91AF919F918F91DE
:101EC0007F916F915F914F913F912F910F900BBE3A
:101ED0000F900FBE0F901F9018951F920F920FB684
:101EE0000F9211240F900FBE0F901F901895CF9254
:101EF000DF92EF92FF920F931F93E82FF92F05C007
:101F0000015011092109310961F19081962394173B
:101F1000B9F305C0015011092109310911F190816E
:101F200096239413F7CFC12CD12CE12CF12C0AC0AD
:101F30008FEFC81AD80AE80AF80A0C151D052E05F5
:101F40003F0579F080818623841791F36C2D7D2DD8
:101F50008E2D9F2D1F910F91FF90EF90DF90CF90CE
:101F6000089560E070E080E090E01F910F91FF9095
:101F7000EF90DF90CF9008950F931F93CF9310921F
:101F8000100410920F0488EE93E0A0E0B0E080937C
:101F9000110490931204A0931304B093140425E049
:101FA00032E030930E0420930D0425EC30E03093A2
:101FB0001A042093190424EC30E030931C0420937D
:101FC0001B0420EC30E030931E0420931D0421EC10
:101FD00030E03093200420931F0422EC30E0309353
:101FE00022042093210426EC30E030932404209333
:101FF00023041092260410922704109228041092B1
:1020000029041092AD041092AC048093AE04909316
:10201000AF04A093B004B093B10487E192E0909331
:10202000AB048093AA0480914605803308F0B3C0C6
:1020300091E0980F909346058093920590E0FC0103
:10204000EE0FFF1FE80FF91FEA54FB4F88EB9BE0F0
:102050009283818380914605803308F0A0C091E08F
:10206000980F9093460580938F0590E0FC01EE0F4A
:10207000FF1FE80FF91FEA54FB4F88EB9BE09283A8
:10208000818310927A051092790509E212E010938B
:1020900078050093770582E080937B05CFEFC093AE
:1020A0007C0583E080937D0584E080937E0585E058
:1020B00080937F0586E08093800587E0809381058B
:1020C0001092820510928305109284051092850566
:1020D0001092860541E060E187E795E00E94210BC0
:1020E00010926205109261051093600500935F05E0
:1020F00080E380936305C093640581E38093650565
:1021000082E38093660583E38093670584E380938D
:10211000680585E38093690510926A0510926B0546
:1021200010926C0510926D0510926E0541E060E111
:102130008FE595E00E94210B10924A051092490507
:10214000109348050093470589E280934B05C0939F
:102150004C058AE280934D058BE280934E058CE21C
:1021600080934F058DE2809350058EE28093510558
:102170001092520510925305109254051092550575
:102180001092560541E060E187E495E0CF911F9100
:102190000F910C94210B8FEF809392055BCF8FEF03
:1021A00080938F056ECF789484B5826084BD84B5AA
:1021B000816084BD85B5826085BD85B5816085BD42
:1021C00080916E00816080936E00109281008091FA
:1021D0008100826080938100809181008160809382
:1021E0008100809180008160809380008091B100A7
:1021F00084608093B1008091B00081608093B000D2
:102200008091910082608093910080919100816023
:1022100080939100809190008160809390008091E4
:10222000A10082608093A1008091A10081608093D1
:10223000A1008091A00081608093A0008091210185
:10224000826080932101809121018160809321012E
:102250008091200181608093200180917A008460C8
:1022600080937A0080917A00826080937A008091D6
:102270007A00816080937A0080917A0080688093F0
:102280007A001092C10060E086E30E949E0361E044
:1022900086E10E949E0361E087E10E949E0361E067
:1022A00088E10E949E0361E089E10E949E0360E054
:1022B0008EE00E949E0361E08FE00E949E0360E03A
:1022C0008FE00E94CD0261E08AE10E949E0361E0FE
:1022D0008BE10E949E0361E08CE10E949E0344E03A
:1022E00064E187E795E00E94210B60E087E795E0D5
:1022F0000E940C0B61E472E087E795E00E94120CEB
:1023000064EF71E080E090E00E94D40587E795E0FB
:102310000E94190B44E064E18FE595E00E94210BD7
:1023200061E08FE595E00E940C0B63E572E08FE5BC
:1023300095E00E94120C62E08FE595E00E940C0B84
:102340006DE572E08FE595E00E94120C63E08FE589
:1023500095E00E940C0B66E672E08FE595E00E9426
:10236000120C64EF71E080E090E00E94D4058FE5EC
:1023700095E00E94190B109276031092750310924B
:10238000EC030E943A068EE992E0909374038093E6
:1023900073038FE992E090937203809371038AEA4A
:1023A00094E090937803809377030E943A06D8E6EE
:1023B000D093EB0381E00E94790644E064E187E476
:1023C00095E00E94210B8091770390917803DD24A2
:1023D000D394D092C9031092CA031092EC03DC018B
:1023E000ED91FC910190F081E02D60E0199581E084
:1023F0000E94790661E088E60E94690710927603E0
:10240000809375038091770390917803DC01ED91BF
:10241000FC910284F385E02D199587FFBEC06DE61F
:1024200072E08DE094E00E94B70B61E872E08DE00D
:1024300094E00E94B70B8DE892E00E940606C82F38
:1024400088E892E00E940606182F80E992E00E9438
:102450000606082F83E992E00E940606F82E86E918
:1024600092E00E940606E82E80917703909178030F
:10247000D092C903D093EB031092CA031092EC03DD
:10248000DC01ED91FC910190F081E02D60E0199567
:10249000A0917703B0917803DAE08E2D6D2F0E9422
:1024A000A019682F660F680F660F6E0DED91FC91F5
:1024B00011970190F081E02DCD011995A09177033E
:1024C000B09178038F2D6D2F0E94A019682F660F91
:1024D000680F660F6F0DED91FC9111970190F081DF
:1024E000E02DCD011995A0917703B0917803802F4D
:1024F0006D2F0E94A019682F660F680F660F600F7E
:10250000ED91FC9111970190F081E02DCD0119958D
:102510008091770390917803DC01ED91FC9101901B
:10252000F081E02D60E01995A0917703B0917803D8
:10253000812F6D2F0E94A019682F660F680F660FFC
:10254000610FED91FC9111970190F081E02DCD018B
:1025500019958091770390917803DC01ED91FC91BE
:102560000190F081E02D60E11995A0917703B09181
:1025700078038C2F6D2F0E94A019682F660F680FAB
:10258000660F6C0FED91FC9111970190F081E02D99
:10259000CD01199581E00E94790661E086E20E94F2
:1025A0009E0361E087E20E949E036DE170E082E994
:1025B00095E00E9421096EE170E08FE895E00E94AD
:1025C000210970E060E082E995E00E94BE0870E0B9
:1025D00060E08FE895E00E94BE08C1E0D8E6F3E233
:1025E0002F2E312C8091770390917803C093C903EB
:1025F000D093EB031092CA031092EC03DC01ED912F
:10260000FC910190F081E02D60E0199581E00E943D
:10261000790667E088E60E94690710927603809346
:1026200075038091770390917803DC01ED91FC9123
:102630000284F385E02D19958F77282F30E094E000
:10264000359527959A95E1F7922F990F990F122FAB
:10265000191B110F180F8091770390917803DC01FB
:10266000ED91FC910284F385E02D19959C0144E0E5
:10267000359527954A95E1F72F703327922F990FBB
:10268000990F022F091B000F080F8091770390917B
:102690007803DC01ED91FC910284F385E02D19951E
:1026A0009C0154E0359527955A95E1F72F70332713
:1026B000922F990F990FD22ED91ADD0CD80E809136
:1026C000770390917803DC01ED91FC910284F3850E
:1026D000E02D19958091770390917803DC01ED91BD
:1026E000FC910284F385E02D19959C0164E03595F9
:1026F00027956A95E1F72F703327922F990F990F3D
:10270000B22EB91ABB0CB80E809177039091780362
:10271000DC01ED91FC910284F385E02D19959C017B
:1027200074E0359527957A95E1F72F703327922F2E
:10273000990F990FC22EC91ACC0CC80E809177033D
:1027400090917803DC01ED91FC910284F385E02DFA
:1027500019957C0160E087E495E00E940C0B4B2DFD
:1027600050E070E060E02AE087E495E00E94C60B4C
:102770006FE287E495E00E94030B4C2D50E070E07F
:1027800060E02AE087E495E00E94C60B6FE287E4F0
:1027900095E00E94030BC701E4E095958795EA95C3
:1027A000E1F78F709927982F990F990F482F491BA0
:1027B000440FE40E4E2D50E04053584F70E060E05F
:1027C0002AE087E495E00E94C60B60E287E495E08A
:1027D0000E94030B61E087E495E00E940C0BB7E1D7
:1027E000BD1508F42BC0ED2DF0E08827E550FC4E18
:1027F0008F4F0C94AC1913149A159D15A015A315A1
:10280000A615A915AC15AF15B215B515B815131445
:102810009A159D15A015A315A615A915AC15AF15EC
:10282000B215B515B81569E972E087E495E00E9424
:10283000120C6AE387E495E00E94030B0A3028F447
:1028400060E387E495E00E94030B402F50E070E0C6
:1028500060E02AE087E495E00E94C60B6AE387E423
:1028600095E00E94030B1A3028F460E387E495E0BA
:102870000E94030B412F50E070E060E02AE087E403
:1028800095E00E94C60BEBE06AEB72E0ED1510F0EC
:102890006EEB72E087E495E00E94120C6AE070E053
:1028A00080E090E00E94D40585E40E949205BC017E
:1028B000990F880B990B0E94011720E030E040E847
:1028C0005AE30E94601720E030E44CE955E40E948E
:1028D000601720E030E040E251E40E94EE186B0106
:1028E0007C014B015C0162E087E495E00E940C0BE7
:1028F00062EC72E087E495E00E94120C63E087E4EA
:1029000095E00E940C0BA7019601C701B6010E9439
:102910009B1968ED72E081111BC026013701E89414
:1029200077F82FEF3FEF4FE75FE7C301B2010E9457
:102930009B19811120C12FEF3FEF4FE75FE7C301E4
:10294000B2010E94FA1618160CF015C16CED72E077
:1029500087E495E00E94B70B6FED87E495E00E9455
:10296000030B64EE72E087E495E00E94120C86E3AC
:102970000E94920524E630E0DC010E94B4192FEF9A
:1029800033E040E050E00E941E1830937C03209317
:102990007B0361E087E795E00E940C0B66EE72E036
:1029A00087E795E00E94120CC0907B03D0907C03D7
:1029B0000D2C000CEE08FF082AE0B701A601F7FE77
:1029C0000DC06DE287E795E00E94030B4427552771
:1029D000BA014C195D096E097F092AE087E795E085
:1029E0000E94C60B6FE372E087E795E00E94120C2D
:1029F00080917B0390917C038B3491050CF03BC15B
:102A0000C2978CF561E086E10E94CD0260E087E12B
:102A10000E94CD0263E087E795E00E940C0B66EF11
:102A200072E087E795E00E94120C66E073E087E7AA
:102A300095E00E94120C64E670E080E090E00E9455
:102A4000D40570E060E082E995E00E94BE0870E085
:102A500060E08FE895E00E94BE0868EE73E080E0D9
:102A600090E00E94D40560E08FE00E94CD0283E0F8
:102A700090E00197F1F761E08FE00E94CD02C10183
:102A80000197F1F760E08FE00E94CD02ECE2F2E006
:102A90006491ECE8F2E08491E82FF0E0EE0FFF1F84
:102AA000EC5FFD4F8591949100E412E42FE030E05B
:102AB000462F0E94770F611571058105910529F058
:102AC0006F5F7F4F8F4F9F4F9F700E94011726E9C6
:102AD00033E44BE85CE30E9460170E946019DB015D
:102AE00024E630E00E94B4192FEF33E040E050E0DC
:102AF0000E941E18C90130937A03209379032B504A
:102B000031092035310508F0D4C00E94140C61E071
:102B10008BE10E94CD0260E08AE10E94CD0260E07C
:102B20008CE10E94CD0264E670E080E090E00E94BB
:102B3000D405D1C06CE972E078CE6FE972E075CE51
:102B400062EA72E072CE65EA72E06FCE68EA72E025
:102B50006CCE6BEA72E069CE6EEA72E066CE61EB33
:102B600072E063CE64EB72E060CE67EB72E05DCE44
:102B700066E972E05ACE2FEF3FEF4FE75FE4C701FF
:102B8000B6010E94961918161CF460EE72E0E0CEB1
:102B90002FEF3FEF4FE75FECC701B6010E94FA1637
:102BA00087FDF3CF20E030E0A901C701B6010E9404
:102BB000FA1687FF0BC06DE287E495E00E94030BD5
:102BC00046015701B7FAB094B7F8B0942AE037ED50
:102BD00043EA5BE3C501B4010E9482184B015C012A
:102BE0000E9467196B017C010E94FF169B01AC01DA
:102BF000C501B4010E9481184B015C012AE0B701B4
:102C0000A60187E495E00E94C60B6EE287E495E09A
:102C10000E94030B20E030E040E251E4C501B40122
:102C20000E9460174B015C010E9467196B01F12C37
:102C3000E12C2AE0B701A60187E495E00E94C60BCB
:102C4000C701B6010E94FF169B01AC01C501B4018A
:102C50000E94811820E030E040E251E40E946017B9
:102C60000E946719AB0170E060E02AE087E495E01C
:102C70000E94C60B71CE60E086E10E94CD0260E04A
:102C800087E10E94CD0263E087E795E00E940C0B8C
:102C900066EF72E087E795E00E94120C69E073E04E
:102CA00087E795E00E94120C64E670E080E090E017
:102CB000D8CE8B3091050CF076C00E94140C61E0E8
:102CC0008AE10E94CD0260E08BE10E94CD0260E0CB
:102CD0008CE10E94CD028091790390917A03843631
:102CE00091050CF071C00A97FCF461E088E10E9444
:102CF000CD0260E089E10E94CD0262E08FE595E0BF
:102D00000E940C0B6DE073E08FE595E00E94120CC1
:102D100066E073E08FE595E00E94120C64E670E0D7
:102D200080E090E00E94D4056AE570E082E995E0D9
:102D30000E94BE086AE570E08FE895E00E94BE0838
:102D400080917B0390917C03C29794F486E20E9469
:102D5000CF036AE070E080E090E00E94D40586E254
:102D60000E94590364E670E080E090E00E94D40580
:102D70008091790390917A030A9794F487E20E94F4
:102D8000CF036AE070E080E090E00E94D40587E223
:102D90000E94590364E670E080E090E00E94D40550
:102DA0000E946D021FCC8B3591050CF494CF0E94CC
:102DB000140C61E08CE10E94CD0260E08AE10E9487
:102DC000CD0260E08BE1ADCE60E088E10E94CD02F3
:102DD00060E089E10E94CD0262E08FE595E00E940B
:102DE0000C0B6DE073E08FE595E00E94120C69E03A
:102DF00073E090CF0E943C1708F481E00895E894B6
:102E000009C097FB3EF490958095709561957F4F32
:102E10008F4F9F4F9923A9F0F92F96E9BB279395E0
:102E2000F695879577956795B795F111F8CFFAF4F0
:102E3000BB0F11F460FF1BC06F5F7F4F8F4F9F4F21
:102E400016C0882311F096E911C0772321F09EE87F
:102E5000872F762F05C0662371F096E8862F70E0E5
:102E600060E02AF09A95660F771F881FDAF7880FBF
:102E70009695879597F90895990F0008550FAA0B15
:102E8000E0E8FEEF16161706E807F907C0F012167D
:102E90001306E407F50798F0621B730B840B950B80
:102EA00039F40A2661F0232B242B252B21F40895D5
:102EB0000A2609F4A140A6958FEF811D811D089572
:102EC0000E9473170C94E4170E94D61738F00E94E2
:102ED000DD1720F0952311F00C94CD170C94D31727
:102EE00011240C9418180E94F51770F3959FC1F3E4
:102EF000950F50E0551F629FF001729FBB27F00DA8
:102F0000B11D639FAA27F00DB11DAA1F649F6627FC
:102F1000B00DA11D661F829F2227B00DA11D621F4B
:102F2000739FB00DA11D621F839FA00D611D221F05
:102F3000749F3327A00D611D231F849F600D211DE9
:102F4000822F762F6A2F11249F5750409AF0F1F06C
:102F500088234AF0EE0FFF1FBB1F661F771F881FD5
:102F600091505040A9F79E3F510580F00C94CD1729
:102F70000C9418185F3FE4F3983ED4F38695779548
:102F80006795B795F795E7959F5FC1F7FE2B880F7B
:102F9000911D9695879597F9089597F99F6780E811
:102FA00070E060E008959FEF80EC089500240A949B
:102FB0001616170618060906089500240A94121614
:102FC0001306140605060895092E0394000C11F447
:102FD000882352F0BB0F40F4BF2B11F460FF04C0F4
:102FE0006F5F7F4F8F4F9F4F089557FD9058440F4D
:102FF000551F59F05F3F71F04795880F97FB991F58
:1030000061F09F3F79F08795089512161306140614
:10301000551FF2CF4695F1DF08C0161617061806A1
:10302000991FF1CF86957105610508940895E8947C
:10303000BB2766277727CB0197F90895052E97FBC5
:103040001EF400940E94351857FD07D00E945018B6
:1030500007FC03D04EF40C943518509540953095EC
:1030600021953F4F4F4F5F4F0895909580957095F4
:1030700061957F4F8F4F9F4F08950E947218A59FB3
:10308000900DB49F900DA49F800D911D1124089563
:10309000B7FF0C943D180E943D18821B930B0895B6
:1030A000A1E21A2EAA1BBB1BFD010DC0AA1FBB1F4C
:1030B000EE1FFF1FA217B307E407F50720F0A21BBE
:1030C000B30BE40BF50B661F771F881F991F1A942B
:1030D00069F760957095809590959B01AC01BD0155
:1030E000CF010895A29FB001B39FC001A39F700DAF
:1030F000811D1124911DB29F700D811D1124911D00
:1031000008955058BB27AA270E9499180C94E417D9
:103110000E94D61738F00E94DD1720F039F49F3F47
:1031200019F426F40C94D3170EF4E095E7FB0C94F5
:10313000CD17E92F0E94F51758F3BA1762077307E6
:103140008407950720F079F4A6F50C9417180EF46F
:10315000E0950B2EBA2FA02D0B01B90190010C01A7
:10316000CA01A0011124FF27591B99F0593F50F4BF
:10317000503E68F11A16F040A22F232F342F442717
:10318000585FF3CF469537952795A795F04053950F
:10319000C9F77EF41F16BA0B620B730B840BBAF0DF
:1031A0009150A1F0FF0FBB1F661F771F881FC2F74A
:1031B0000EC0BA0F621F731F841F48F4879577955E
:1031C0006795B795F7959E3F08F0B0CF9395880F18
:1031D00008F09927EE0F9795879508950E94021998
:1031E0000C94E4170E94DD1758F00E94D61740F0A7
:1031F00029F45F3F29F00C94CD1751110C94181845
:103200000C94D3170E94F51768F39923B1F3552353
:1032100091F3951B550BBB27AA27621773078407E9
:1032200038F09F5F5F4F220F331F441FAA1FA9F37F
:1032300035D00E2E3AF0E0E832D091505040E6956D
:10324000001CCAF72BD0FE2F29D0660F771F881FCE
:10325000BB1F261737074807AB07B0E809F0BB0BC1
:10326000802DBF01FF2793585F4F3AF09E3F5105D5
:1032700078F00C94CD170C9418185F3FE4F3983E47
:10328000D4F3869577956795B795F7959F5FC9F7BE
:10329000880F911D9695879597F90895E1E0660F3F
:1032A000771F881FBB1F621773078407BA0720F0B8
:1032B000621B730B840BBA0BEE1F88F7E095089521
:1032C0000E9467196894B1110C94181808950E940F
:1032D000FD1788F09F5798F0B92F9927B751B0F094
:1032E000E1F0660F771F881F991F1AF0BA95C9F78A
:1032F00014C0B13091F00E941718B1E008950C94F9
:103300001718672F782F8827B85F39F0B93FCCF3AB
:10331000869577956795B395D9F73EF49095809506
:10332000709561957F4F8F4F9F4F08950E943C1776
:1033300008F48FEF08950E943C17880B990B0895AD
:10334000991B79E004C0991F961708F0961B881FF7
:103350007A95C9F780950895EE0FFF1F881F8BBFE0
:103360000790F691E02D19940E947218B7FF089506
:10337000821B930B0895F894FFCFFF00000000F626
:1033800001A00297014302C801A601BA0100000092
:10339000008F086208640A38085B0848083908008A
:1033A000000000FD0AA002640A630A54414E4B204B
:1033B0004C4556454C3D2020002500205765617442
:1033C0006865722053746174696F6E200041757472
:1033D0006F6D61746963005761746572696E67002F
:1033E00053797374656D00525443206973204E4FB6
:1033F000542072756E6E696E6721000D0A004F636E
:103400007420203720323032310031373A30363AAA
:103410003131003132003031003032003033003091
:103420003400303500303600303700303800303965
:103430000031300020504D0020414D00546F646138
:103440007927732054656D70657261747572653A81
:1034500020006E616E00696E66006F766600430044
:103460004D4F49535420434F4E54454E543D200038
:10347000532D4D4F544F5220535441545553200017
:103480004F4E004F464600572D4D4F544F5220533C
:08349000544154555320000083
:020000040003F7
:10E000000D9489F10D94B2F10D94B2F10D94B2F129
:10E010000D94B2F10D94B2F10D94B2F10D94B2F1F0
:10E020000D94B2F10D94B2F10D94B2F10D94B2F1E0
:10E030000D94B2F10D94B2F10D94B2F10D94B2F1D0
:10E040000D94B2F10D94B2F10D94B2F10D94B2F1C0
:10E050000D94B2F10D94B2F10D94B2F10D94B2F1B0
:10E060000D94B2F10D94B2F10D94B2F10D94B2F1A0
:10E070000D94B2F10D94B2F10D94B2F10D94B2F190
:10E080000D94B2F10D94B2F10D94B2F10D94B2F180
:10E090000D94B2F10D94B2F10D94B2F10D94B2F170
:10E0A0000D94B2F10D94B2F10D94B2F10D94B2F160
:10E0B0000D94B2F10D94B2F10D94B2F10D94B2F150
:10E0C0000D94B2F10D94B2F10D94B2F10D94B2F140
:10E0D0000D94B2F10D94B2F10D94B2F10D94B2F130
:10E0E0000D94B2F141546D656761323536300041AF
:10E0F000726475696E6F206578706C6F72657220DE
:10E1000073746B3530305632206279204D4C530099
:10E11000426F6F746C6F616465723E004875683F52
:10E1200000436F6D70696C6564206F6E203D200048
:10E130004350552054797065202020203D20005FF9
:10E140005F4156525F415243485F5F3D2000415658
:10E1500052204C696243205665723D20004743437C
:10E160002056657273696F6E203D20004350552024
:10E1700049442020202020203D20004C6F7720663D
:10E18000757365202020203D20004869676820665F
:10E190007573652020203D200045787420667573D6
:10E1A00065202020203D20004C6F636B2066757336
:10E1B000652020203D20004D617220203720323024
:10E1C000313300312E362E3800342E332E350056A2
:10E1D00023202020414444522020206F7020636F70
:10E1E00064652020202020696E73747275637469E1
:10E1F0006F6E2061646472202020496E74657272B3
:10E20000757074006E6F20766563746F7200726A49
:10E210006D702020006A6D70200057686174207056
:10E220006F72743A00506F7274206E6F7420737541
:10E2300070706F72746564004D7573742062652030
:10E2400061206C6574746572002000577269747483
:10E25000696E672045450052656164696E672045B7
:10E26000450045452065727220636E743D00504F35
:10E27000525400303D5A65726F2061646472003FF1
:10E280003D43505520737461747300403D454550C3
:10E29000524F4D207465737400423D426C696E6B41
:10E2A000204C454400453D44756D70204545505215
:10E2B0004F4D00463D44756D7020464C415348001B
:10E2C000483D48656C70004C3D4C69737420492F83
:10E2D0004F20506F72747300513D51756974005234
:10E2E0003D44756D702052414D00563D73686F7707
:10E2F00020696E7465727275707420566563746FF0
:10E30000727300593D506F727420626C696E6B00BD
:10E310002A0011241FBECFEFD1E2DEBFCDBF01E046
:10E320000CBF12E0A0E0B2E0EEE1FDEF03E00BBFB6
:10E3300002C007900D92A030B107D9F712E0A0E01B
:10E34000B2E001C01D92AE30B107E1F70F9460F367
:10E350000D948DFE01E20EBF0FEF0DBF11241FBE05
:10E360000D9460F30D9400F020E030E040ED57E0B4
:10E3700005C0FA013197F1F72F5F3F4F2817390792
:10E38000C0F308959C01260F311DC901A0E0B0E043
:10E390002F5F3F4FABBFFC018791882361F08093D3
:10E3A000C6008091C00086FFFCCF8091C0008064D1
:10E3B0008093C000EACF08958DE08093C6008091DD
:10E3C000C00086FFFCCF8091C00080648093C000B5
:10E3D0008AE08093C6008091C00086FFFCCF8091C8
:10E3E000C00080648093C00008950F94C2F10F9420
:10E3F000DCF10895FC019081992359F09093C600B7
:10E400008091C00086FFFCCF8091C0008064809323
:10E41000C0003196992379F70895282F982F929567
:10E420009F70892F805D8A3308F0895F8093C600D2
:10E430008091C00086FFFCCF8091C00080648093F3
:10E44000C000822F8F70982F905D9A3308F0995FEB
:10E450009093C6008091C00086FFFCCF8091C000E1
:10E4600080648093C00008959C01FB01853691056E
:10E470001CF46330710594F0C90164E670E00F94F8
:10E480002EFE605D7F4F6093C6008091C00086FFC6
:10E49000FCCF8091C00080648093C0002B30310598
:10E4A00014F43297B4F0C90164E670E00F942EFEC4
:10E4B0006AE070E00F942EFE605D7F4F6093C600AF
:10E4C0008091C00086FFFCCF8091C0008064809363
:10E4D000C000C9016AE070E00F942EFEC0968093E0
:10E4E000C6008091C00086FFFCCF8091C000806490
:10E4F0008093C00008951F93182F8EE692EE60E07F
:10E500000F94C2F11093C6008091C00086FFFCCF2B
:10E510008091C00080648093C0000F94DCF11F9153
:10E5200008952F923F924F925F926F927F928F92B7
:10E530009F92AF92BF92CF92DF92EF92FF920F9392
:10E540001F93DF93CF93CDB7DEB762970FB6F894E2
:10E55000DEBF0FBECDBF382E622ECA01DB015C01CB
:10E560006D01772420E2222E2E010894411C511CBB
:10E570008BC081E0A81680E0B80681E0C80680E084
:10E58000D80628F0C601AA27BB270F940DF2BB2797
:10E59000AD2D9C2D8B2D0F940DF28A2D0F940DF225
:10E5A0002092C6008091C00086FFFCCF8091C00001
:10E5B00080648093C0009DE29093C6008091C0006B
:10E5C00086FFFCCF8091C00080648093C0002092C1
:10E5D000C6008091C00086FFFCCF8091C00080649F
:10E5E0008093C00019828601750188249924A1E0D6
:10E5F0003A1651F03A1620F0B2E03B1661F409C029
:10E600000BBFF701779007C0C7010F9477FE782EF4
:10E6100002C0F7017080872D0F940DF22092C60082
:10E620008091C00086FFFCCF8091C0008064809301
:10E63000C000872D8052F401EF70F0708F3520F408
:10E64000E40DF51D708204C0E40DF51D8EE280839B
:10E650000894E11CF11C011D111D0894811C911CE2
:10E6600090E18916910409F0C2CF80E190E0A0E02A
:10E67000B0E0A80EB91ECA1EDB1E198AC2010F9493
:10E68000FAF10F94DCF16A94662009F072CF629679
:10E690000FB6F894DEBF0FBECDBFCF91DF911F91B3
:10E6A0000F91FF90EF90DF90CF90BF90AF909F9031
:10E6B0008F907F906F905F904F903F902F90089534
:10E6C0002F923F924F925F926F927F928F929F9282
:10E6D000AF92BF92CF92DF92EF92FF920F931F9370
:10E6E000DF93CF93CDB7DEB7CD53D1400FB6F894BB
:10E6F000DEBF0FBECDBF01E20EBF0FEF0DBF94B75F
:10E70000F894A89514BE80916000886180936000A1
:10E7100010926000789493FF05C0E0910002F091A0
:10E7200001021995279A2F9A8091C00082608093E8
:10E73000C00080E18093C40088E18093C1000000A4
:10E74000EE24FF24870144E0A42EB12CCC24DD2448
:10E7500024C0C5010197F1F70894E11CF11C011DCB
:10E76000111D21E2E2162EE4F20620E0020720E06D
:10E77000120718F031E0C32ED12CC801B70127ECE5
:10E780003BE140E050E00F9441FE611571058105C9
:10E79000910519F485B1805885B98091C00087FD35
:10E7A00003C0C114D104A9F2A6014F5F5F4FC25E3E
:10E7B000DE4F59834883CE51D140C25EDE4F8881FF
:10E7C0009981CE51D140019711F00D9410FEC05D9A
:10E7D000DE4F19821882C053D14060E0C15DDE4F28
:10E7E0001882CF52D14088249924C35DDE4F19820C
:10E7F0001882CD52D140C05EDE4F188219821A8233
:10E800001B82C052D140CE5CDE4F188219821A8220
:10E810001B82C253D140EE24FF2487010BBFF701B6
:10E8200007911691C45CDE4F19830883CC53D14005
:10E830000D940BFEC25EDE4F28813981CE51D1404E
:10E840002130310509F52091C600C25EDE4F1982E4
:10E850001882CE51D14022C02F5F3F4F4F4F5F4FA4
:10E86000213082E138078AE7480780E0580780F0C6
:10E87000C45CDE4FE881F981CC53D140EF5FFF4F9C
:10E8800019F0EE27FF27099420E030E040E050E047
:10E890008091C00087FFE0CF2091C600C35DDE4FAE
:10E8A00048815981CD52D1404F5F5F4FC35DDE4FEC
:10E8B00059834883CD52D140213209F063C64A3092
:10E8C000510508F05FC60894811C911C53E0851621
:10E8D000910409F059C600E010E018C081E280936D
:10E8E000C6008091C00086FFFCCF8091C00080648C
:10E8F0008093C0002F5F3F4F2931310579F70F9486
:10E90000DCF10F5F1F4F0530110519F020E030E0FA
:10E91000E5CF10920A0210920B0210920C02109294
:10E920000D02109206021092070210920802109235
:10E930000902109202021092030210920402109235
:10E9400005028FEE90EE60E00F94F5F180E191EE1C
:10E9500060E00F94C2F18091C00087FFFCCF9091DE
:10E96000C600903608F09F759032B8F09093C600BC
:10E970008091C00086FFFCCF8091C00080648093AE
:10E98000C000A0E2A093C6008091C00086FFFCCF2B
:10E990008091C00080648093C000983409F4D7C18E
:10E9A0009934B8F4923409F459C1933458F490333B
:10E9B00019F1903308F4E3C59F33A1F1903409F0C5
:10E9C000DEC5BDC0953409F470C1963409F0D7C5D1
:10E9D00098C1923509F42BC2933538F49C3409F46C
:10E9E000F5C1913509F0CBC518C2963509F445C279
:10E9F000993509F0C4C567C483E792EE62E00F94CD
:10EA0000F5F110920602109207021092080210927D
:10EA1000090210920A0210920B0210920C0210923C
:10EA20000D0213C18FE792EE62E00F94F5F18FEEC5
:10EA300090EE60E00F94F5F181E291EE60E00F94CA
:10EA4000C2F187EB91EE60E00F94F5F180E391EE77
:10EA500060E00F94C2F184EE90EE60E00F94F5F167
:10EA60008FE391EE60E00F94C2F186E090E061E008
:10EA700070E00F9434F20F94DCF18DE591EE60E0DC
:10EA80000F94C2F189EC91EE60E00F94F5F18EE401
:10EA900091EE60E00F94C2F183EC91EE60E00F9490
:10EAA000F5F18CE691EE60E00F94C2F18EE10F94E7
:10EAB0000DF288E90F940DF281E00F940DF20F949E
:10EAC000DCF18BE791EE60E00F94C2F119E0E0E039
:10EAD000F0E010935700E4918E2F0F940DF20F94F5
:10EAE000DCF18AE891EE60E00F94C2F1E3E0F0E03F
:10EAF00010935700E4918E2F0F940DF20F94DCF1D8
:10EB000089E991EE60E00F94C2F1E2E0F0E0109349
:10EB10005700E4918E2F0F940DF20F94DCF188EAE8
:10EB200091EE60E00F94C2F1E1E0F0E01093570045
:10EB30001491812F0F940DF20F94DCF107CF8BE825
:10EB400092EE62E00F94F5F18BE492EE60E00F94A8
:10EB5000F5F10F94DCF100E010E019C0C8016F2D51
:10EB60000F947FFEFF2031F489E492EE60E00F9471
:10EB7000C2F10BC0F092C6008091C00086FFFCCFAE
:10EB80008091C00080648093C0000F5F1F4FC80158
:10EB900081519F41A0E0B0E0ABBFFC01F790BAE229
:10EBA000FB1621F0E2E000301E07C1F60F94DCF105
:10EBB0000F94DCF187E592EE60E00F94F5F10F948D
:10EBC000DCF1CC24DD2400E010E01EC0C8010F946D
:10EBD00077FEF82E882331F489E492EE60E00F94FA
:10EBE000C2F10BC08093C6008091C00086FFFCCFAD
:10EBF0008091C00080648093C000FE1419F00894D6
:10EC0000C11CD11C0F5F1F4FC80181519F41A0E063
:10EC1000B0E0ABBFFC01E790FAE2EF1621F022E092
:10EC20000030120799F60F94DCF10F94DCF182E6C4
:10EC300092EE60E00F94C2F1C60161E070E00F94C3
:10EC400034F20F94DCF10F94DCF110920202109276
:10EC50000302109204021092050278CE89E992EE26
:10EC600062E00F94F5F1279A2F9A16C02F9880E052
:10EC700090E0E0EDF7E03197F1F7019684369105E9
:10EC8000C1F72F9A80E090E0E0EDF7E03197F1F7DF
:10EC9000019684369105C1F78091C00087FFE6CFC9
:10ECA0008091C00087FFFCCF64C485EA92EE62E0E9
:10ECB0000F94F5F140910202509103026091040219
:10ECC0007091050281E020E10F9491F2809102029F
:10ECD00090910302A0910402B091050280509F4FD1
:10ECE000AF4FBF4F8093020290930302A0930402A0
:10ECF000B093050280509041A040B04008F426CE69
:10ED0000A4CF83EB92EE62E00F94F5F140910602FE
:10ED100050910702609108027091090280E020E1A1
:10ED20000F9491F28091060290910702A09108023F
:10ED3000B091090280509F4FAF4FBF4F80930602A2
:10ED400090930702A0930802B0930902FFCD80ECD4
:10ED500092EE62E00F94F5F183E792EE60E00F949B
:10ED6000F5F18FE792EE60E00F94F5F18BE892EE0B
:10ED700060E00F94F5F189E992EE60E00F94F5F10F
:10ED800085EA92EE60E00F94F5F183EB92EE60E09D
:10ED90000F94F5F180EC92EE60E00F94F5F187ECC2
:10EDA00092EE60E00F94F5F188ED92EE60E00F9442
:10EDB000F5F18FED92EE60E00F94F5F18AEE92EEB0
:10EDC00060E00F94F5F183E093EEBDCD87EC92EE19
:10EDD00062E00F94F5F181E40F947BF282E40F94EA
:10EDE0007BF283E40F947BF284E40F947BF285E45E
:10EDF0000F947BF286E40F947BF287E40F947BF20E
:10EE000088E40F947BF28AE40F947BF28BE40F94F6
:10EE10007BF28CE40F947BF299CD88ED92EE62E068
:10EE20000F94F5F1772473948824992409C48FED05
:10EE300092EE62E00F94F5F140910A0250910B02BC
:10EE400060910C0270910D0282E020E10F9491F22A
:10EE500080910A0290910B02A0910C02B0910D02D8
:10EE600080509F4FAF4FBF4F80930A0290930B0289
:10EE7000A0930C02B0930D0269CD8AEE92EE62E08F
:10EE80000F94F5F184EE90EE60E00F94F5F18FECC5
:10EE900091EE60E00F94F5F1662477244301CC5D98
:10EEA000DE4F19821882C452D140D401C301B695F5
:10EEB000A79597958795CA5DDE4F88839983AA8326
:10EEC000BB83C652D140CC5DDE4FA881B981C4520C
:10EED000D1401196CC5DDE4FB983A883C452D14096
:10EEE000CD0162E070E00F9434F2B0E2B093C6005E
:10EEF0008091C00086FFFCCF8091C0008064809329
:10EF0000C000EDE2E093C6008091C00086FFFCCF18
:10EF10008091C00080648093C000F0E2F093C6004E
:10EF20008091C00086FFFCCF8091C00080648093F8
:10EF3000C000CA5DDE4FE880F9800A811B81C6529D
:10EF4000D140BB27A12F902F8F2D0F940DF2CA5DBA
:10EF5000DE4F8881C652D1400F940DF2B0E2FB2EF5
:10EF6000F092C6008091C00086FFFCCF8091C00067
:10EF700080648093C0000DE30093C6008091C000C0
:10EF800086FFFCCF8091C00080648093C00010E2B7
:10EF90001093C6008091C00086FFFCCF8091C00016
:10EFA00080648093C0008BBEF3012791C65DDE4F65
:10EFB0002883CA52D140A22EBB24CC24DD2408943D
:10EFC000611C711C811C911C8BBEF3018791282E42
:10EFD0003324442455240894611C711C811C911C09
:10EFE0008BBEF3013791C55DDE4F3883CB52D140E4
:10EFF0000894611C711C811C911C8BBEF30147910C
:10F00000C45DDE4F4883CC52D140ADEFEA2EAFEF66
:10F01000FA2EAFEF0A2FAFEF1A2F6E0C7F1C801E57
:10F02000911E142D032DF22CEE24EA0CFB1C0C1D5A
:10F030001D1D0F940DF220E22093C6008091C000A8
:10F0400086FFFCCF8091C00080648093C000C65DC5
:10F05000DE4F8881CA52D1400F940DF230E23093D6
:10F06000C6008091C00086FFFCCF8091C000806404
:10F070008093C000C45DDE4F8881CC52D1400F9494
:10F080000DF240E24093C6008091C00086FFFCCFA5
:10F090008091C00080648093C000C55DDE4F888190
:10F0A000CB52D1400F940DF250E25093C6008091A4
:10F0B000C00086FFFCCF8091C00080648093C000B8
:10F0C0008FEFE8168FEFF80680E0080780E018075A
:10F0D00031F484E092EE60E00F94C2F1DFC0D80119
:10F0E000C7018070907CA070B0708050904CA040A0
:10F0F000B040D1F52FEF3FE340E050E0E222F322B1
:10F1000004231523CA5DDE4FA880B980CA80DB8046
:10F11000C652D140AE0CBF1CC01ED11EAA0CBB1CD7
:10F12000CC1CDD1C8EE092EE60E00F94C2F1BB2798
:10F13000A12F902F8F2D0F940DF28E2D0F940DF285
:10F1400030E23093C6008091C00086FFFCCF8091F2
:10F15000C00080648093C0004EE34093C60080915D
:10F16000C00086FFFCCF87C08EE09EEFA0E0B0E03D
:10F17000E822F9220A231B239CE0E91694E9F90608
:10F1800090E0090790E0190709F088C0C45DDE4FE0
:10F19000A881CC52D140EA2EFF2400E010E0102FCD
:10F1A0000F2DFE2CEE24C55DDE4FB881CB52D14031
:10F1B000EB0EF11C011D111DD601C501817090706F
:10F1C000A070B070DC0199278827E80EF91E0A1F8D
:10F1D0001B1F20EF30E040E050E0A222B322C42207
:10F1E000D52241E1AA0CBB1CCC1CDD1C4A95D1F7F1
:10F1F000EA0CFB1C0C1D1D1D81E090E0A0E0B0E0BE
:10F20000282239224A225B2235E1220C331C441C7D
:10F21000551C3A95D1F7E20CF31C041D151D57013E
:10F220006801AA0CBB1CCC1CDD1C85E192EE60E0E1
:10F230000F94C2F1C801AA27BB270F940DF2BB2778
:10F24000A12F902F8F2D0F940DF28E2D0F940DF274
:10F2500090E29093C6008091C00086FFFCCF809121
:10F26000C00080648093C000AEE3A093C60080918C
:10F27000C00086FFFCCF8091C00080648093C000F6
:10F28000C601AA27BB270F940DF2BB27AD2D9C2DDD
:10F290008B2D0F940DF28A2D0F940DF20F94DCF14B
:10F2A000CC5DDE4FE881F981C452D140F99709F471
:10F2B0004DCBF4E0EF2EF12C012D112D6E0C7F1CA7
:10F2C000801E911EF2CD83E093EE62E00F94F5F183
:10F2D0008AE192EE60E00F94C2F18091C00087FF56
:10F2E000FCCF1091C6001F751093C6008091C0001E
:10F2F00086FFFCCF8091C00080648093C0000F9493
:10F30000DCF1812F81548A3108F036C1163409F4BA
:10F3100095C0173490F4133409F44EC0143430F40B
:10F320001134F1F0123409F01DC130C0143409F465
:10F3300059C0153409F016C16BC01A3409F4C4C0A1
:10F340001B3438F4173409F48FC0183409F00AC19B
:10F35000A1C01B3409F4D2C01C3409F003C1E8C0B9
:10F360008FEF81B90DC082B1809582B980E090E0C5
:10F37000E0EDF7E03197F1F70196883C9105C1F790
:10F380008091C00087FFEFCF12B8EFC08FEF84B934
:10F390000DC085B1809585B980E090E0E0EDF7E0A3
:10F3A0003197F1F70196883C9105C1F78091C00033
:10F3B00087FFEFCF15B8D9C08FEF87B90DC088B1DF
:10F3C000809588B980E090E0E0EDF7E03197F1F7C3
:10F3D0000196883C9105C1F78091C00087FFEFCF6F
:10F3E00018B8C3C08FEF8AB90DC08BB180958BB9A7
:10F3F00080E090E0E0EDF7E03197F1F70196883C8E
:10F400009105C1F78091C00087FFEFCF1BB8ADC059
:10F410008FEF8DB90DC08EB180958EB980E090E0F0
:10F42000E0EDF7E03197F1F70196883C9105C1F7DF
:10F430008091C00087FFEFCF1EB897C08FEF80BBD1
:10F440000DC081B3809581BB80E090E0E0EDF7E0F6
:10F450003197F1F70196883C9105C1F78091C00082
:10F4600087FFEFCF11BA81C08FEF83BB0DC084B38C
:10F47000809584BB80E090E0E0EDF7E03197F1F714
:10F480000196883C9105C1F78091C00087FFEFCFBE
:10F4900014BA6BC08FEF809301010FC080910201FD
:10F4A00080958093020180E090E0E0EDF7E03197F5
:10F4B000F1F70196883C9105C1F78091C00087FF64
:10F4C000EDCF1092020151C08FEF809304010FC065
:10F4D0008091050180958093050180E090E0E0ED4A
:10F4E000F7E03197F1F70196883C9105C1F78091DB
:10F4F000C00087FFEDCF1092050137C08FEF8093DA
:10F5000007010FC08091080180958093080180E079
:10F5100090E0E0EDF7E03197F1F70196883C910536
:10F52000C1F78091C00087FFEDCF109208011DC088
:10F530008FEF80930A010FC080910B01809580931B
:10F540000B0180E090E0E0EDF7E03197F1F70196F4
:10F55000883C9105C1F78091C00087FFEDCF1092E4
:10F560000B0103C085E292EEEEC98091C00087FFD7
:10F57000FCCF8091C600EAC988E392EEE4C98CE131
:10F5800091EEE1C988249924933011F1943028F444
:10F59000913089F09230B8F408C0953061F195301F
:10F5A000F0F0963009F048C043C02B3109F042C951
:10F5B00091E06BE13FC96227C15DDE4F2883CF52E6
:10F5C000D14092E037C9B22FA0E0622793E032C960
:10F5D000822F90E0A82BB92B622794E02BC92E3004
:10F5E00009F039C3622795E0C05DDE4F19821882A9
:10F5F000C053D1401FC9E1E0F0E0EC0FFD1FC05D3A
:10F60000DE4F08811981C053D140E00FF11F2083E4
:10F610000F5F1F4FC05DDE4F19830883C053D14079
:10F6200062270A171B0709F005C9D80196E002C92D
:10F63000261709F010C303C0973009F0FBC87724E0
:10F640009981933109F412C19431C8F4963009F4C8
:10F65000D8C0973050F4923009F406C1933009F4C1
:10F660006DC0913009F059C253C0913109F477C08F
:10F67000923108F0BBC0903109F04FC2F5C098310B
:10F6800009F487C0993150F4953109F4EFC09531F0
:10F6900008F4C6C1963109F040C2C2C19A3109F4DA
:10F6A0006CC09A3108F491C09B3109F45BC09D3164
:10F6B00009F033C29D81903359F48F81882311F46E
:10F6C0009EE11CC0813011F091E018C098E916C08D
:10F6D000892F807591F0903539F4E0E0F0E089E011
:10F6E0008093570094910AC0983539F4E3E0F0E034
:10F6F00089E080935700949101C090E01A821B82A8
:10F700008D818C831D829E831F8227E030E009C299
:10F710001A8288E08B8381E48C8386E58D8382E581
:10F720008E8389E48F8383E5888780E589878FE5E9
:10F730008A8782E38B872BE030E0F3C18A818139AD
:10F7400041F0823941F0803911F48FE005C080E04A
:10F7500003C082E001C08AE01A828B8344C0772410
:10F76000739482C08D81882311F48EE12CC0813086
:10F7700011F081E028C088E926C01A82E1E0F0E0BB
:10F7800089E08093570084918B831C8224E030E0D1
:10F79000C8C18B81803589F48C81883039F4E2E0EE
:10F7A000F0E089E08093570084910DC0E0E0F0E044
:10F7B00089E080935700849106C0E3E0F0E089E09F
:10F7C0008093570084911A82DFCF8D81836C99E0FA
:10F7D000E1E0F0E0082E90935700E89507B600FCB2
:10F7E000FDCF1A821B8223E030E09BC180EC8A832C
:10F7F000CE5CDE4F188219821A821B82C253D1401E
:10F800008EC18A8190E0A0E0B0E0582F44273327D2
:10F8100022278B8190E0A0E0B0E0DC0199278827C7
:10F82000282B392B4A2B5B2B8D8190E0A0E0B0E098
:10F83000282B392B4A2B5B2B8C8190E0A0E0B0E089
:10F84000BA2FA92F982F8827282B392B4A2B5B2BCF
:10F85000220F331F441F551FC05EDE4F288339839C
:10F860004A835B83C052D1401A8259C13A81C95C34
:10F87000DE4F3883C753D140CA5CDE4F1882C6536F
:10F88000D1408B81C82EDD24CA5CDE4F488159816E
:10F89000C653D140C42AD52A933109F082C0CE5C28
:10F8A000DE4F88819981AA81BB81C253D1408050AB
:10F8B000904CA340B04030F583E0CE5CDE4FE88052
:10F8C000F9800A811B81C253D140F70100935B008C
:10F8D00080935700E89507B600FCFDCFCE5CDE4F65
:10F8E000088119812A813B81C253D14000501F4FAA
:10F8F0002F4F3F4FCE5CDE4F088319832A833B8313
:10F90000C253D140C05EDE4F488159816A817B81FC
:10F91000C052D140DE011B9631E08C9111962C91A2
:10F9200011971296C75CDE4F2883C953D140C85C3B
:10F93000DE4F1882C853D14090E0C85CDE4FE881AA
:10F94000F981C853D1408E2B9F2B0C01FA01609393
:10F950005B0030935700E89511244E5F5F4F6F4F67
:10F960007F4F0EEFE02E0FEFF02ECE0CDF1CC114F8
:10F97000D10499F685E0C05EDE4F088119812A81A5
:10F980003B81C052D140F80120935B008093570027
:10F99000E89507B600FCFDCF81E180935700E8951C
:10F9A00035C0C05EDE4F88819981AA81BB81C0527B
:10F9B000D140B695A795979587957C018601ABE0D8
:10F9C000AA2EB12CAC0EBD1E0BC0D5016D915D01F0
:10F9D000C7010F947FFE0894E11CF11C01501040F8
:10F9E0000115110591F7A60160E070E0440F551F65
:10F9F000661F771FC05EDE4FE880F9800A811B8199
:10FA0000C052D1404E0D5F1D601F711F1A82C05E33
:10FA1000DE4F488359836A837B83C052D1407FC0C5
:10FA2000FA80C55CDE4FF882CB53D140C65CDE4F16
:10FA30001882CA53D1408B81C82EDD24C65CDE4FAC
:10FA400008811981CA53D140C02AD12A1A828981DA
:10FA5000BE016D5F7F4F843121F59601C05EDE4FA0
:10FA6000E880F9800A811B81C052D1400BBFF701A9
:10FA700087919691DB018C9311969C936E5F7F4FDB
:10FA8000D801C7010296A11DB11DC05EDE4F88835B
:10FA90009983AA83BB83C052D14022503040F1F6F3
:10FAA00036C0C05EDE4F288139814A815B81C052F9
:10FAB000D1400894C108D108760100E010E0089414
:10FAC000C11CD11C0894E11CF11C011D111DE20E8A
:10FAD000F31E041F151F21BDBB27A52F942F832FB5
:10FAE00082BD2F5F3F4F4F4F5F4FF89A80B5DB01CC
:10FAF0008D93BD012E153F054007510761F7C05E8C
:10FB0000DE4F288339834A835B83C052D1409601FC
:10FB10002D5F3F4FFB01108204C080EC8A8322E0FE
:10FB200030E08BE18093C6008091C00086FFFCCF5F
:10FB30008091C00080648093C000C15DDE4FF88179
:10FB4000CF52D140F093C6008091C00086FFFCCF19
:10FB50008091C00080648093C000432F3093C60022
:10FB60008091C00086FFFCCF8091C00080648093AC
:10FB7000C000922F2093C6008091C00086FFFCCF6A
:10FB80008091C00080648093C0008EE08093C600A6
:10FB90008091C00086FFFCCF8091C000806480937C
:10FBA000C00065E1C15DDE4FE880CF52D1406E25D7
:10FBB00069276427FE01319610C090819093C6009A
:10FBC0008091C00086FFFCCF31968091C000806498
:10FBD0008093C0006927215030402115310569F715
:10FBE0006093C6008091C00086FFFCCF8091C0006A
:10FBF00080648093C00085B1805885B9772081F4F6
:10FC0000C15DDE4F0881CF52D1400F5FC15DDE4F35
:10FC10000883CF52D14090E0A0E0B0E00D941AF4F8
:10FC200027982F9880E090E020ED37E0F901319798
:10FC3000F1F7019684369105C9F700008091C00064
:10FC40008D7F8093C00081E180935700E895EE2777
:10FC5000FF270994FFCF90E00D941AF497FB092E2B
:10FC600007260AD077FD04D02ED006D000201AF443
:10FC7000709561957F4F0895F6F7909581959F4F08
:10FC80000895A1E21A2EAA1BBB1BFD010DC0AA1FDD
:10FC9000BB1FEE1FFF1FA217B307E407F50720F0F5
:10FCA000A21BB30BE40BF50B661F771F881F991F70
:10FCB0001A9469F760957095809590959B01AC01B9
:10FCC000BD01CF010895AA1BBB1B51E107C0AA1FAC
:10FCD000BB1FA617B70710F0A61BB70B881F991FED
:10FCE0005A95A9F780959095BC01CD010895F99991
:10FCF000FECF92BD81BDF89A992780B50895262F31
:10FD0000F999FECF1FBA92BD81BD20BD0FB6F89400
:0EFD1000FA9AF99A0FBE01960895F894FFCF63
:00000001FF
